{
  "address": "0x36fFd67dC7330A7C435E19a126549f67EDdC1067",
  "abi": [
    {
      "inputs": [],
      "stateMutability": "nonpayable",
      "type": "constructor"
    },
    {
      "anonymous": false,
      "inputs": [
        {
          "indexed": true,
          "internalType": "address",
          "name": "owner",
          "type": "address"
        },
        {
          "indexed": true,
          "internalType": "address",
          "name": "approved",
          "type": "address"
        },
        {
          "indexed": true,
          "internalType": "uint256",
          "name": "tokenId",
          "type": "uint256"
        }
      ],
      "name": "Approval",
      "type": "event"
    },
    {
      "anonymous": false,
      "inputs": [
        {
          "indexed": true,
          "internalType": "address",
          "name": "owner",
          "type": "address"
        },
        {
          "indexed": true,
          "internalType": "address",
          "name": "operator",
          "type": "address"
        },
        {
          "indexed": false,
          "internalType": "bool",
          "name": "approved",
          "type": "bool"
        }
      ],
      "name": "ApprovalForAll",
      "type": "event"
    },
    {
      "anonymous": false,
      "inputs": [
        {
          "indexed": false,
          "internalType": "address",
          "name": "",
          "type": "address"
        },
        {
          "indexed": false,
          "internalType": "string",
          "name": "uri",
          "type": "string"
        }
      ],
      "name": "GmailTokenGenerated",
      "type": "event"
    },
    {
      "anonymous": false,
      "inputs": [
        {
          "indexed": true,
          "internalType": "address",
          "name": "from",
          "type": "address"
        },
        {
          "indexed": true,
          "internalType": "address",
          "name": "to",
          "type": "address"
        },
        {
          "indexed": true,
          "internalType": "uint256",
          "name": "tokenId",
          "type": "uint256"
        }
      ],
      "name": "Transfer",
      "type": "event"
    },
    {
      "inputs": [
        {
          "internalType": "address",
          "name": "",
          "type": "address"
        }
      ],
      "name": "_addressToUri",
      "outputs": [
        {
          "internalType": "string",
          "name": "",
          "type": "string"
        }
      ],
      "stateMutability": "view",
      "type": "function"
    },
    {
      "inputs": [],
      "name": "_nextTokenId",
      "outputs": [
        {
          "internalType": "uint256",
          "name": "",
          "type": "uint256"
        }
      ],
      "stateMutability": "view",
      "type": "function"
    },
    {
      "inputs": [
        {
          "internalType": "address",
          "name": "to",
          "type": "address"
        },
        {
          "internalType": "uint256",
          "name": "tokenId",
          "type": "uint256"
        }
      ],
      "name": "approve",
      "outputs": [],
      "stateMutability": "nonpayable",
      "type": "function"
    },
    {
      "inputs": [
        {
          "internalType": "address",
          "name": "owner",
          "type": "address"
        }
      ],
      "name": "balanceOf",
      "outputs": [
        {
          "internalType": "uint256",
          "name": "",
          "type": "uint256"
        }
      ],
      "stateMutability": "view",
      "type": "function"
    },
    {
      "inputs": [
        {
          "internalType": "address",
          "name": "checkerAddress",
          "type": "address"
        }
      ],
      "name": "checkAddressToEmailLinked",
      "outputs": [
        {
          "internalType": "string",
          "name": "",
          "type": "string"
        }
      ],
      "stateMutability": "view",
      "type": "function"
    },
    {
      "inputs": [
        {
          "internalType": "uint256",
          "name": "tokenId",
          "type": "uint256"
        }
      ],
      "name": "getApproved",
      "outputs": [
        {
          "internalType": "address",
          "name": "",
          "type": "address"
        }
      ],
      "stateMutability": "view",
      "type": "function"
    },
    {
      "inputs": [
        {
          "internalType": "address",
          "name": "owner",
          "type": "address"
        },
        {
          "internalType": "address",
          "name": "operator",
          "type": "address"
        }
      ],
      "name": "isApprovedForAll",
      "outputs": [
        {
          "internalType": "bool",
          "name": "",
          "type": "bool"
        }
      ],
      "stateMutability": "view",
      "type": "function"
    },
    {
      "inputs": [],
      "name": "name",
      "outputs": [
        {
          "internalType": "string",
          "name": "",
          "type": "string"
        }
      ],
      "stateMutability": "view",
      "type": "function"
    },
    {
      "inputs": [
        {
          "internalType": "uint256",
          "name": "tokenId",
          "type": "uint256"
        }
      ],
      "name": "ownerOf",
      "outputs": [
        {
          "internalType": "address",
          "name": "",
          "type": "address"
        }
      ],
      "stateMutability": "view",
      "type": "function"
    },
    {
      "inputs": [
        {
          "internalType": "string",
          "name": "uri",
          "type": "string"
        },
        {
          "internalType": "bytes",
          "name": "signature",
          "type": "bytes"
        }
      ],
      "name": "safeMint",
      "outputs": [],
      "stateMutability": "nonpayable",
      "type": "function"
    },
    {
      "inputs": [
        {
          "internalType": "address",
          "name": "from",
          "type": "address"
        },
        {
          "internalType": "address",
          "name": "to",
          "type": "address"
        },
        {
          "internalType": "uint256",
          "name": "tokenId",
          "type": "uint256"
        }
      ],
      "name": "safeTransferFrom",
      "outputs": [],
      "stateMutability": "nonpayable",
      "type": "function"
    },
    {
      "inputs": [
        {
          "internalType": "address",
          "name": "from",
          "type": "address"
        },
        {
          "internalType": "address",
          "name": "to",
          "type": "address"
        },
        {
          "internalType": "uint256",
          "name": "tokenId",
          "type": "uint256"
        },
        {
          "internalType": "bytes",
          "name": "data",
          "type": "bytes"
        }
      ],
      "name": "safeTransferFrom",
      "outputs": [],
      "stateMutability": "nonpayable",
      "type": "function"
    },
    {
      "inputs": [
        {
          "internalType": "address",
          "name": "operator",
          "type": "address"
        },
        {
          "internalType": "bool",
          "name": "approved",
          "type": "bool"
        }
      ],
      "name": "setApprovalForAll",
      "outputs": [],
      "stateMutability": "nonpayable",
      "type": "function"
    },
    {
      "inputs": [
        {
          "internalType": "bytes",
          "name": "sig",
          "type": "bytes"
        }
      ],
      "name": "splitSig",
      "outputs": [
        {
          "internalType": "bytes32",
          "name": "r",
          "type": "bytes32"
        },
        {
          "internalType": "bytes32",
          "name": "s",
          "type": "bytes32"
        },
        {
          "internalType": "uint8",
          "name": "v",
          "type": "uint8"
        }
      ],
      "stateMutability": "pure",
      "type": "function"
    },
    {
      "inputs": [
        {
          "internalType": "bytes4",
          "name": "interfaceId",
          "type": "bytes4"
        }
      ],
      "name": "supportsInterface",
      "outputs": [
        {
          "internalType": "bool",
          "name": "",
          "type": "bool"
        }
      ],
      "stateMutability": "view",
      "type": "function"
    },
    {
      "inputs": [],
      "name": "symbol",
      "outputs": [
        {
          "internalType": "string",
          "name": "",
          "type": "string"
        }
      ],
      "stateMutability": "view",
      "type": "function"
    },
    {
      "inputs": [
        {
          "internalType": "uint256",
          "name": "tokenId",
          "type": "uint256"
        }
      ],
      "name": "tokenURI",
      "outputs": [
        {
          "internalType": "string",
          "name": "",
          "type": "string"
        }
      ],
      "stateMutability": "view",
      "type": "function"
    },
    {
      "inputs": [
        {
          "internalType": "address",
          "name": "from",
          "type": "address"
        },
        {
          "internalType": "address",
          "name": "to",
          "type": "address"
        },
        {
          "internalType": "uint256",
          "name": "tokenId",
          "type": "uint256"
        }
      ],
      "name": "transferFrom",
      "outputs": [],
      "stateMutability": "nonpayable",
      "type": "function"
    },
    {
      "inputs": [
        {
          "internalType": "string",
          "name": "message",
          "type": "string"
        },
        {
          "internalType": "bytes",
          "name": "signature",
          "type": "bytes"
        }
      ],
      "name": "verifySignature",
      "outputs": [
        {
          "internalType": "bool",
          "name": "",
          "type": "bool"
        }
      ],
      "stateMutability": "pure",
      "type": "function"
    }
  ],
  "transactionHash": "0x5549fdb868ddf0f54d043ef400df531f805508b1957d365cca989cbb49ef0792",
  "args": [],
  "numDeployments": 1,
  "solcInputHash": "dd0bd7c457e0a45d099c9108339e4258",
  "bytecode": "0x608060405260016007553480156200001657600080fd5b506040518060400160405280600e81526020016d23b6b0b4b620baba342a37b5b2b760911b8152506040518060400160405280600381526020016211d05560ea1b81525081600090816200006b919062000128565b5060016200007a828262000128565b505050620001f4565b634e487b7160e01b600052604160045260246000fd5b600181811c90821680620000ae57607f821691505b602082108103620000cf57634e487b7160e01b600052602260045260246000fd5b50919050565b601f8211156200012357600081815260208120601f850160051c81016020861015620000fe5750805b601f850160051c820191505b818110156200011f578281556001016200010a565b5050505b505050565b81516001600160401b0381111562000144576200014462000083565b6200015c8162000155845462000099565b84620000d5565b602080601f8311600181146200019457600084156200017b5750858301515b600019600386901b1c1916600185901b1785556200011f565b600085815260208120601f198616915b82811015620001c557888601518255948401946001909101908401620001a4565b5085821015620001e45787850151600019600388901b60f8161c191681555b5050505050600190811b01905550565b611dfa80620002046000396000f3fe608060405234801561001057600080fd5b50600436106101215760003560e01c80635db1bc88116100ad578063a22cb46511610071578063a22cb46514610278578063b88d4fde1461028b578063c87b56dd1461029e578063dbb31645146102b1578063e985e9c5146102c457600080fd5b80635db1bc88146102065780636352211e146102375780636a4785f11461024a57806370a082311461025d57806395d89b411461027057600080fd5b806323b872dd116100f457806323b872dd146101a35780632ca8b623146101b65780633634791e146101c957806342842e0e146101dc5780634a60f620146101ef57600080fd5b806301ffc9a71461012657806306fdde031461014e578063081812fc14610163578063095ea7b31461018e575b600080fd5b61013961013436600461165e565b610300565b60405190151581526020015b60405180910390f35b610156610352565b60405161014591906116cb565b6101766101713660046116de565b6103e4565b6040516001600160a01b039091168152602001610145565b6101a161019c366004611713565b61040b565b005b6101a16101b136600461173d565b610525565b6101566101c4366004611779565b610556565b6101396101d7366004611840565b610602565b6101a16101ea36600461173d565b61072b565b6101f860075481565b604051908152602001610145565b6102196102143660046118bb565b610746565b60408051938452602084019290925260ff1690820152606001610145565b6101766102453660046116de565b6107ba565b610156610258366004611779565b61081a565b6101f861026b366004611779565b6108b4565b61015661093a565b6101a16102863660046118f0565b610949565b6101a161029936600461192c565b610958565b6101566102ac3660046116de565b610990565b6101a16102bf366004611840565b61099b565b6101396102d2366004611994565b6001600160a01b03918216600090815260056020908152604080832093909416825291909152205460ff1690565b60006001600160e01b031982166380ac58cd60e01b148061033157506001600160e01b03198216635b5e139f60e01b145b8061034c57506301ffc9a760e01b6001600160e01b03198316145b92915050565b606060008054610361906119c7565b80601f016020809104026020016040519081016040528092919081815260200182805461038d906119c7565b80156103da5780601f106103af576101008083540402835291602001916103da565b820191906000526020600020905b8154815290600101906020018083116103bd57829003601f168201915b5050505050905090565b60006103ef82610b35565b506000908152600460205260409020546001600160a01b031690565b6000610416826107ba565b9050806001600160a01b0316836001600160a01b0316036104885760405162461bcd60e51b815260206004820152602160248201527f4552433732313a20617070726f76616c20746f2063757272656e74206f776e656044820152603960f91b60648201526084015b60405180910390fd5b336001600160a01b03821614806104a457506104a481336102d2565b6105165760405162461bcd60e51b815260206004820152603d60248201527f4552433732313a20617070726f76652063616c6c6572206973206e6f7420746f60448201527f6b656e206f776e6572206f7220617070726f76656420666f7220616c6c000000606482015260840161047f565b6105208383610b97565b505050565b61052f3382610c05565b61054b5760405162461bcd60e51b815260040161047f90611a01565b610520838383610c84565b6001600160a01b038116600090815260096020526040902080546060919061057d906119c7565b80601f01602080910402602001604051908101604052809291908181526020018280546105a9906119c7565b80156105f65780601f106105cb576101008083540402835291602001916105f6565b820191906000526020600020905b8154815290600101906020018083116105d957829003601f168201915b50505050509050919050565b60008061060f8451610de8565b84604051602001610621929190611a4e565b604051602081830303815290604052805190602001209050600080600061064786610746565b92509250925060006001858386866040516000815260200160405260405161068b949392919093845260ff9290921660208401526040830152606082015260800190565b6020604051602081039080840390855afa1580156106ad573d6000803e3d6000fd5b5050604051601f190151915073248d89fba4586bf7fdd8b5a6c2a137e59f20355890506001600160a01b038216811461071c5760405162461bcd60e51b8152602060048201526011602482015270496e76616c6964207369676e617475726560781b604482015260640161047f565b50600198975050505050505050565b61052083838360405180602001604052806000815250610958565b6000806000835160411461079c5760405162461bcd60e51b815260206004820152601860248201527f496e76616c6964207369676e6174757265206c656e6774680000000000000000604482015260640161047f565b50505060208101516040820151606090920151909260009190911a90565b6000818152600260205260408120546001600160a01b03168061034c5760405162461bcd60e51b8152602060048201526018602482015277115490cdcc8c4e881a5b9d985b1a59081d1bdad95b88125160421b604482015260640161047f565b60096020526000908152604090208054610833906119c7565b80601f016020809104026020016040519081016040528092919081815260200182805461085f906119c7565b80156108ac5780601f10610881576101008083540402835291602001916108ac565b820191906000526020600020905b81548152906001019060200180831161088f57829003601f168201915b505050505081565b60006001600160a01b03821661091e5760405162461bcd60e51b815260206004820152602960248201527f4552433732313a2061646472657373207a65726f206973206e6f7420612076616044820152683634b21037bbb732b960b91b606482015260840161047f565b506001600160a01b031660009081526003602052604090205490565b606060018054610361906119c7565b610954338383610ef4565b5050565b6109623383610c05565b61097e5760405162461bcd60e51b815260040161047f90611a01565b61098a84848484610fc2565b50505050565b606061034c82610ff5565b3332146109ea5760405162461bcd60e51b815260206004820152601960248201527f436f6e74726163747320617265206e6f7420616c6c6f77656400000000000000604482015260640161047f565b6109f48282610602565b610a345760405162461bcd60e51b8152602060048201526011602482015270496e76616c6964207369676e617475726560781b604482015260640161047f565b600882604051610a449190611aa9565b9081526040519081900360200190205460ff1615610a995760405162461bcd60e51b815260206004820152601260248201527155524920616c72656164792065786973747360701b604482015260640161047f565b610aa5336007546110fd565b610ab160075483611117565b6001600883604051610ac39190611aa9565b908152604051908190036020019020805491151560ff1990921691909117905560078054906000610af383611adb565b91905055507fde3b940a8eb2902d8d02ce7b9bf91dd3e32a59edbe391df4b3ed79f07ca645ec3383604051610b29929190611af4565b60405180910390a15050565b6000818152600260205260409020546001600160a01b0316610b945760405162461bcd60e51b8152602060048201526018602482015277115490cdcc8c4e881a5b9d985b1a59081d1bdad95b88125160421b604482015260640161047f565b50565b600081815260046020526040902080546001600160a01b0319166001600160a01b0384169081179091558190610bcc826107ba565b6001600160a01b03167f8c5be1e5ebec7d5bd14f71427d1e84f3dd0314c0f7b2291e5b200ac8c7c3b92560405160405180910390a45050565b600080610c11836107ba565b9050806001600160a01b0316846001600160a01b03161480610c5857506001600160a01b0380821660009081526005602090815260408083209388168352929052205460ff165b80610c7c5750836001600160a01b0316610c71846103e4565b6001600160a01b0316145b949350505050565b826001600160a01b0316610c97826107ba565b6001600160a01b031614610cbd5760405162461bcd60e51b815260040161047f90611b18565b6001600160a01b038216610d1f5760405162461bcd60e51b8152602060048201526024808201527f4552433732313a207472616e7366657220746f20746865207a65726f206164646044820152637265737360e01b606482015260840161047f565b826001600160a01b0316610d32826107ba565b6001600160a01b031614610d585760405162461bcd60e51b815260040161047f90611b18565b600081815260046020908152604080832080546001600160a01b03199081169091556001600160a01b0387811680865260038552838620805460001901905590871680865283862080546001019055868652600290945282852080549092168417909155905184937fddf252ad1be2c89b69c2b068fc378daa952ba7f163c4a11628f55a4df523b3ef91a4505050565b606081600003610e0f5750506040805180820190915260018152600360fc1b602082015290565b8160005b8115610e395780610e2381611adb565b9150610e329050600a83611b73565b9150610e13565b60008167ffffffffffffffff811115610e5457610e54611794565b6040519080825280601f01601f191660200182016040528015610e7e576020820181803683370190505b509050815b8515610eeb5780610e9381611b87565b9150610ea29050600a87611b9e565b610ead906030611bb2565b60f81b828281518110610ec257610ec2611bc5565b60200101906001600160f81b031916908160001a905350610ee4600a87611b73565b9550610e83565b50949350505050565b816001600160a01b0316836001600160a01b031603610f555760405162461bcd60e51b815260206004820152601960248201527f4552433732313a20617070726f766520746f2063616c6c657200000000000000604482015260640161047f565b6001600160a01b03838116600081815260056020908152604080832094871680845294825291829020805460ff191686151590811790915591519182527f17307eab39ab6107e8899845ad3d59bd9653f200f220920489ca2b5937696c31910160405180910390a3505050565b610fcd848484610c84565b610fd9848484846111aa565b61098a5760405162461bcd60e51b815260040161047f90611bdb565b606061100082610b35565b60008281526006602052604081208054611019906119c7565b80601f0160208091040260200160405190810160405280929190818152602001828054611045906119c7565b80156110925780601f1061106757610100808354040283529160200191611092565b820191906000526020600020905b81548152906001019060200180831161107557829003601f168201915b5050505050905060006110b060408051602081019091526000815290565b905080516000036110c2575092915050565b8151156110f45780826040516020016110dc929190611c2d565b60405160208183030381529060405292505050919050565b610c7c846112ab565b61095482826040518060200160405280600081525061131f565b6000828152600260205260409020546001600160a01b03166111925760405162461bcd60e51b815260206004820152602e60248201527f45524337323155524953746f726167653a2055524920736574206f66206e6f6e60448201526d32bc34b9ba32b73a103a37b5b2b760911b606482015260840161047f565b60008281526006602052604090206105208282611caa565b60006001600160a01b0384163b156112a057604051630a85bd0160e11b81526001600160a01b0385169063150b7a02906111ee903390899088908890600401611d6a565b6020604051808303816000875af1925050508015611229575060408051601f3d908101601f1916820190925261122691810190611da7565b60015b611286573d808015611257576040519150601f19603f3d011682016040523d82523d6000602084013e61125c565b606091505b50805160000361127e5760405162461bcd60e51b815260040161047f90611bdb565b805181602001fd5b6001600160e01b031916630a85bd0160e11b149050610c7c565b506001949350505050565b60606112b682610b35565b60006112cd60408051602081019091526000815290565b905060008151116112ed5760405180602001604052806000815250611318565b806112f784611352565b604051602001611308929190611c2d565b6040516020818303038152906040525b9392505050565b61132983836113e5565b61133660008484846111aa565b6105205760405162461bcd60e51b815260040161047f90611bdb565b6060600061135f83611570565b600101905060008167ffffffffffffffff81111561137f5761137f611794565b6040519080825280601f01601f1916602001820160405280156113a9576020820181803683370190505b5090508181016020015b600019016f181899199a1a9b1b9c1cb0b131b232b360811b600a86061a8153600a85049450846113b357509392505050565b6001600160a01b03821661143b5760405162461bcd60e51b815260206004820181905260248201527f4552433732313a206d696e7420746f20746865207a65726f2061646472657373604482015260640161047f565b6000818152600260205260409020546001600160a01b0316156114a05760405162461bcd60e51b815260206004820152601c60248201527f4552433732313a20746f6b656e20616c7265616479206d696e74656400000000604482015260640161047f565b6000818152600260205260409020546001600160a01b0316156115055760405162461bcd60e51b815260206004820152601c60248201527f4552433732313a20746f6b656e20616c7265616479206d696e74656400000000604482015260640161047f565b6001600160a01b038216600081815260036020908152604080832080546001019055848352600290915280822080546001600160a01b0319168417905551839291907fddf252ad1be2c89b69c2b068fc378daa952ba7f163c4a11628f55a4df523b3ef908290a45050565b60008072184f03e93ff9f4daa797ed6e38ed64bf6a1f0160401b83106115af5772184f03e93ff9f4daa797ed6e38ed64bf6a1f0160401b830492506040015b6d04ee2d6d415b85acef810000000083106115db576d04ee2d6d415b85acef8100000000830492506020015b662386f26fc1000083106115f957662386f26fc10000830492506010015b6305f5e1008310611611576305f5e100830492506008015b612710831061162557612710830492506004015b60648310611637576064830492506002015b600a831061034c5760010192915050565b6001600160e01b031981168114610b9457600080fd5b60006020828403121561167057600080fd5b813561131881611648565b60005b8381101561169657818101518382015260200161167e565b50506000910152565b600081518084526116b781602086016020860161167b565b601f01601f19169290920160200192915050565b602081526000611318602083018461169f565b6000602082840312156116f057600080fd5b5035919050565b80356001600160a01b038116811461170e57600080fd5b919050565b6000806040838503121561172657600080fd5b61172f836116f7565b946020939093013593505050565b60008060006060848603121561175257600080fd5b61175b846116f7565b9250611769602085016116f7565b9150604084013590509250925092565b60006020828403121561178b57600080fd5b611318826116f7565b634e487b7160e01b600052604160045260246000fd5b600067ffffffffffffffff808411156117c5576117c5611794565b604051601f8501601f19908116603f011681019082821181831017156117ed576117ed611794565b8160405280935085815286868601111561180657600080fd5b858560208301376000602087830101525050509392505050565b600082601f83011261183157600080fd5b611318838335602085016117aa565b6000806040838503121561185357600080fd5b823567ffffffffffffffff8082111561186b57600080fd5b818501915085601f83011261187f57600080fd5b61188e868335602085016117aa565b935060208501359150808211156118a457600080fd5b506118b185828601611820565b9150509250929050565b6000602082840312156118cd57600080fd5b813567ffffffffffffffff8111156118e457600080fd5b610c7c84828501611820565b6000806040838503121561190357600080fd5b61190c836116f7565b91506020830135801515811461192157600080fd5b809150509250929050565b6000806000806080858703121561194257600080fd5b61194b856116f7565b9350611959602086016116f7565b925060408501359150606085013567ffffffffffffffff81111561197c57600080fd5b61198887828801611820565b91505092959194509250565b600080604083850312156119a757600080fd5b6119b0836116f7565b91506119be602084016116f7565b90509250929050565b600181811c908216806119db57607f821691505b6020821081036119fb57634e487b7160e01b600052602260045260246000fd5b50919050565b6020808252602d908201527f4552433732313a2063616c6c6572206973206e6f7420746f6b656e206f776e6560408201526c1c881bdc88185c1c1c9bdd9959609a1b606082015260800190565b7f19457468657265756d205369676e6564204d6573736167653a0a000000000000815260008351611a8681601a85016020880161167b565b835190830190611a9d81601a84016020880161167b565b01601a01949350505050565b60008251611abb81846020870161167b565b9190910192915050565b634e487b7160e01b600052601160045260246000fd5b600060018201611aed57611aed611ac5565b5060010190565b6001600160a01b0383168152604060208201819052600090610c7c9083018461169f565b60208082526025908201527f4552433732313a207472616e736665722066726f6d20696e636f72726563742060408201526437bbb732b960d91b606082015260800190565b634e487b7160e01b600052601260045260246000fd5b600082611b8257611b82611b5d565b500490565b600081611b9657611b96611ac5565b506000190190565b600082611bad57611bad611b5d565b500690565b8082018082111561034c5761034c611ac5565b634e487b7160e01b600052603260045260246000fd5b60208082526032908201527f4552433732313a207472616e7366657220746f206e6f6e20455243373231526560408201527131b2b4bb32b91034b6b83632b6b2b73a32b960711b606082015260800190565b60008351611c3f81846020880161167b565b835190830190611c5381836020880161167b565b01949350505050565b601f82111561052057600081815260208120601f850160051c81016020861015611c835750805b601f850160051c820191505b81811015611ca257828155600101611c8f565b505050505050565b815167ffffffffffffffff811115611cc457611cc4611794565b611cd881611cd284546119c7565b84611c5c565b602080601f831160018114611d0d5760008415611cf55750858301515b600019600386901b1c1916600185901b178555611ca2565b600085815260208120601f198616915b82811015611d3c57888601518255948401946001909101908401611d1d565b5085821015611d5a5787850151600019600388901b60f8161c191681555b5050505050600190811b01905550565b6001600160a01b0385811682528416602082015260408101839052608060608201819052600090611d9d9083018461169f565b9695505050505050565b600060208284031215611db957600080fd5b81516113188161164856fea26469706673582212201ebadc6fdbcbd7c713d411b17e4be18d7b5473c2a498d6b6aef6b78a817d7be864736f6c63430008110033",
  "devdoc": {
    "kind": "dev",
    "methods": {
      "approve(address,uint256)": {
        "details": "See {IERC721-approve}."
      },
      "balanceOf(address)": {
        "details": "See {IERC721-balanceOf}."
      },
      "getApproved(uint256)": {
        "details": "See {IERC721-getApproved}."
      },
      "isApprovedForAll(address,address)": {
        "details": "See {IERC721-isApprovedForAll}."
      },
      "name()": {
        "details": "See {IERC721Metadata-name}."
      },
      "ownerOf(uint256)": {
        "details": "See {IERC721-ownerOf}."
      },
      "safeTransferFrom(address,address,uint256)": {
        "details": "See {IERC721-safeTransferFrom}."
      },
      "safeTransferFrom(address,address,uint256,bytes)": {
        "details": "See {IERC721-safeTransferFrom}."
      },
      "setApprovalForAll(address,bool)": {
        "details": "See {IERC721-setApprovalForAll}."
      },
      "supportsInterface(bytes4)": {
        "details": "See {IERC165-supportsInterface}."
      },
      "symbol()": {
        "details": "See {IERC721Metadata-symbol}."
      },
      "transferFrom(address,address,uint256)": {
        "details": "See {IERC721-transferFrom}."
      }
    },
    "version": 1
  },
  "userdoc": {
    "kind": "user",
    "methods": {},
    "version": 1
  },
  "storageLayout": {
    "storage": [
      {
        "astId": 25,
        "contract": "contracts/GmailAuthTokenGenerator.sol:GmailAuthTokenGenerator",
        "label": "_name",
        "offset": 0,
        "slot": "0",
        "type": "t_string_storage"
      },
      {
        "astId": 27,
        "contract": "contracts/GmailAuthTokenGenerator.sol:GmailAuthTokenGenerator",
        "label": "_symbol",
        "offset": 0,
        "slot": "1",
        "type": "t_string_storage"
      },
      {
        "astId": 31,
        "contract": "contracts/GmailAuthTokenGenerator.sol:GmailAuthTokenGenerator",
        "label": "_owners",
        "offset": 0,
        "slot": "2",
        "type": "t_mapping(t_uint256,t_address)"
      },
      {
        "astId": 35,
        "contract": "contracts/GmailAuthTokenGenerator.sol:GmailAuthTokenGenerator",
        "label": "_balances",
        "offset": 0,
        "slot": "3",
        "type": "t_mapping(t_address,t_uint256)"
      },
      {
        "astId": 39,
        "contract": "contracts/GmailAuthTokenGenerator.sol:GmailAuthTokenGenerator",
        "label": "_tokenApprovals",
        "offset": 0,
        "slot": "4",
        "type": "t_mapping(t_uint256,t_address)"
      },
      {
        "astId": 45,
        "contract": "contracts/GmailAuthTokenGenerator.sol:GmailAuthTokenGenerator",
        "label": "_operatorApprovals",
        "offset": 0,
        "slot": "5",
        "type": "t_mapping(t_address,t_mapping(t_address,t_bool))"
      },
      {
        "astId": 1073,
        "contract": "contracts/GmailAuthTokenGenerator.sol:GmailAuthTokenGenerator",
        "label": "_tokenURIs",
        "offset": 0,
        "slot": "6",
        "type": "t_mapping(t_uint256,t_string_storage)"
      },
      {
        "astId": 2655,
        "contract": "contracts/GmailAuthTokenGenerator.sol:GmailAuthTokenGenerator",
        "label": "_nextTokenId",
        "offset": 0,
        "slot": "7",
        "type": "t_uint256"
      },
      {
        "astId": 2659,
        "contract": "contracts/GmailAuthTokenGenerator.sol:GmailAuthTokenGenerator",
        "label": "_uriChecker",
        "offset": 0,
        "slot": "8",
        "type": "t_mapping(t_string_memory_ptr,t_bool)"
      },
      {
        "astId": 2663,
        "contract": "contracts/GmailAuthTokenGenerator.sol:GmailAuthTokenGenerator",
        "label": "_addressToUri",
        "offset": 0,
        "slot": "9",
        "type": "t_mapping(t_address,t_string_storage)"
      }
    ],
    "types": {
      "t_address": {
        "encoding": "inplace",
        "label": "address",
        "numberOfBytes": "20"
      },
      "t_bool": {
        "encoding": "inplace",
        "label": "bool",
        "numberOfBytes": "1"
      },
      "t_mapping(t_address,t_bool)": {
        "encoding": "mapping",
        "key": "t_address",
        "label": "mapping(address => bool)",
        "numberOfBytes": "32",
        "value": "t_bool"
      },
      "t_mapping(t_address,t_mapping(t_address,t_bool))": {
        "encoding": "mapping",
        "key": "t_address",
        "label": "mapping(address => mapping(address => bool))",
        "numberOfBytes": "32",
        "value": "t_mapping(t_address,t_bool)"
      },
      "t_mapping(t_address,t_string_storage)": {
        "encoding": "mapping",
        "key": "t_address",
        "label": "mapping(address => string)",
        "numberOfBytes": "32",
        "value": "t_string_storage"
      },
      "t_mapping(t_address,t_uint256)": {
        "encoding": "mapping",
        "key": "t_address",
        "label": "mapping(address => uint256)",
        "numberOfBytes": "32",
        "value": "t_uint256"
      },
      "t_mapping(t_string_memory_ptr,t_bool)": {
        "encoding": "mapping",
        "key": "t_string_memory_ptr",
        "label": "mapping(string => bool)",
        "numberOfBytes": "32",
        "value": "t_bool"
      },
      "t_mapping(t_uint256,t_address)": {
        "encoding": "mapping",
        "key": "t_uint256",
        "label": "mapping(uint256 => address)",
        "numberOfBytes": "32",
        "value": "t_address"
      },
      "t_mapping(t_uint256,t_string_storage)": {
        "encoding": "mapping",
        "key": "t_uint256",
        "label": "mapping(uint256 => string)",
        "numberOfBytes": "32",
        "value": "t_string_storage"
      },
      "t_string_memory_ptr": {
        "encoding": "bytes",
        "label": "string",
        "numberOfBytes": "32"
      },
      "t_string_storage": {
        "encoding": "bytes",
        "label": "string",
        "numberOfBytes": "32"
      },
      "t_uint256": {
        "encoding": "inplace",
        "label": "uint256",
        "numberOfBytes": "32"
      }
    }
  }
}